:020000040002F8
:1060000068F3002061640200696402006B640200AE
:106010006D6402006F640200716402000000000001
:10602000000000000000000000000000C16302004A
:10603000756402000000000005640200796402003B
:10604000218F02007B640200D59502003992020084
:10605000499202007B640200398002007B640200E6
:106060007B6402007B6402007B6402007B640200AC
:106070007B6402007B6402007B6402007B6402009C
:106080007B640200798F02007B6402007B64020063
:106090007B6402007B6402009D9202007B6402002C
:1060A0007B6402007B6402007B6402007B6402006C
:1060B0007B6402007B64020000000000000000001E
:1060C0007B6402007B6402007B6402007B6402004C
:1060D000E18F02007B6402007B640200000000008C
:1060E00000000000000000000000000000000000B0
:1060F00000000000000000000000000000000000A0
:10610000000000000000000000000000000000008F
:10611000000000000000000000000000000000007F
:10612000000000000000000000000000000000006F
:10613000000000000000000000000000000000005F
:10614000000000000000000000000000000000004F
:10615000000000000000000000000000000000003F
:10616000000000000000000000000000000000002F
:10617000000000000000000000000000000000001F
:10618000000000000000000000000000000000000F
:1061900000000000000000000000000000000000FF
:1061A00000000000000000000000000000000000EF
:1061B00000000000000000000000000000000000DF
:1061C00000000000000000000000000000000000CF
:1061D00000000000000000000000000000000000BF
:1061E00000000000000000000000000000000000AF
:1061F000000000000000000000000000000000009F
:10620000DFF80CD000F022FD004800477DF80200C6
:1062100068F3002030B450E8012F93B2C4892344BE
:106220008489A34228BF1B1B0489A34202BFBFF37A
:106230002F8F002007E0C3EA020340E80134002C5E
:10624000E9D14FF001000A6030BC704750E8012FDF
:10625000C2EA024240E801210029F7D1704730B478
:1062600050E8022F1FFAA2F3C488A34202BFBFF373
:106270002F8F00200DE0C48923448489A34228BFC6
:106280001B1BC2EA034340E80234002CE8D14FF064
:1062900001000A6030BC704750E8022FC2EA224277
:1062A00040E802210029F7D17047034653E8022F46
:1062B000D988B2EB324F4FF0000017BF92B241EADB
:1062C000014142EA014104E05A68B2EB324F08BF93
:1062D000012043E80212002AE8D1704730B4044696
:1062E00054E8000F0D4644E80053002BF8D1156028
:1062F00030BC704730B4044654E8000F40EA010552
:1063000044E80053002BF7D1156030BC704730B41F
:10631000044654E8000F00EA010544E80053002B4E
:10632000F7D1156030BC704730B4044654E8000F14
:1063300080EA010544E80053002BF7D1156030BC1A
:10634000704730B4044654E8000F00EB010544E800
:106350000053002BF7D1156030BC704730B40446B1
:1063600054E8000FA0EB010544E80053002BF7D1DF
:10637000156030BC704770B404464FF0000054E81C
:10638000006F0D68AE4207BF44E80023012044E8D7
:1063900000630E60002B1CBF0020F0E770BC70474C
:1063A00030B4044654E8000F88422CBF451A054615
:1063B00044E80053002BF5D1156030BC7047000055
:1063C000264B19680868B0E8F04F80F30988BFF3DE
:1063D0006F8F4FF0000080F31188704700000000BD
:1063E0000748006880F3088862B661B6BFF34F8F34
:1063F000BFF36F8F4FF4F07080F3118800DF00005F
:1064000000600200EFF30980BFF36F8F134B1A682F
:106410001EF0100F08BF20ED108A20E9F04F106029
:1064200008B44FF0C00080F31188BFF34F8FBFF363
:106430006F8F11F02BFB4FF0000080F3118808BC28
:1064400019680868B0E8F04F1EF0100F08BFB0ECF4
:10645000108A80F30988BFF36F8F704744320020A1
:106460000648804706480047FEE7FEE7FEE7FEE7EE
:10647000FEE7FEE7FEE7FEE7FEE7FEE7C592020065
:10648000016202002DE9F05F0546002092469B461E
:1064900088460646814640241BE02846414647463A
:1064A000224600F0CDFA53465A46C01A914110D305
:1064B00011461846224600F016F82D1A67EB01081F
:1064C0004F4622460120002100F00DF817EB00098D
:1064D0004E41201EA4F10104DFDC484631462A4625
:1064E0004346BDE8F09F202A04DB203A00FA02F17F
:1064F000002070479140C2F1200320FA03F31943B2
:106500009040704700487047EC8E030040EA01035A
:106510009B0703D009E008C9121F08C0042AFAD259
:1065200003E011F8013B00F8013B521EF9D270471D
:10653000D2B201E000F8012B491EFBD270470022C5
:10654000F6E710B513460A4604461946FFF7F0FF72
:10655000204610BD30B505462A460B4612F8010B01
:1065600013F8014B08B1A042F8D01CB1002802D0AA
:106570006D1CF1E7284630BD421C10F8011B0029B4
:10658000FBD1801A704730B504460020034600E076
:106590005B1C934203D2E05CCD5C401BF8D030BD65
:1065A000034611F8012B00F8012B002AF9D11846F7
:1065B000704770B5064603F0BBF9046805460A2229
:1065C0000021304600F05EFA2C6070BD2DE9FE4FD0
:1065D000804681EA0300C00F0C46009021F0004184
:1065E00023F00045B8EB0200A94105D24046214600
:1065F00090461C460B46024623F00040104347D00D
:10660000270DC7F30A00C3F30A510290401A019004
:1066100040286BDAC3F3130040F4801B00989246C5
:1066200020B10023D2EB030A63EB0B0B0198594610
:10663000C0F140025046FFF756FF06460D46504651
:106640005946019A00F00CFA10EB08006141002451
:1066500087EA115284EAE7731A4340D0009A62B382
:10666000019A012A4FEA075215DC001B61EB020177
:106670004FF0004202EA0752CDE90042001C41F50A
:10668000801132462B4600F07BFA03B0BDE8F08F54
:1066900040462146F9E7001B61EB0201001C41F571
:1066A000801300185B412018A2F5001747EB030187
:1066B00040EAD570B6196D4111E06D084FEA360613
:1066C00045EAC0754FEA0752001B61EB0201001C4E
:1066D00041F5801149084FEA300000195141324616
:1066E0002B4603B0BDE8F04F00F03BBA0098012202
:1066F00040000023D0EB020263EBE07300982146D8
:106700004FEAE074B8EB000061EB0401E9E783F0C5
:1067100000435BE781F0004158E72DE9FE4F81EA35
:10672000030404F0004421F0004100944FF0000BFA
:1067300023F0004350EA01045ED052EA03045BD028
:10674000C3F30A54C1F30A552C44A4F2F334019460
:10675000A0FB0254C1F3130141F48011C3F31303EE
:1067600043F4801301FB024400FB034E840A970AA2
:1067700044EA815447EA8357A4FB076802958D0ACF
:1067800005FB07854FEA932C04FB0C542705029D5B
:106790004FEA065847EA1637B5EB08056EEB070CCB
:1067A000870E920E47EA811742EA8312A7FB020185
:1067B000B6EB0B0164EB00042B0D43EA0C335E18BF
:1067C00044EB1C50DA465146E7FB0201C5F31304C3
:1067D0004FEA0B3343EA14534FEA0432019C43EA75
:1067E0000603A4F10C040294009CCDE900B400F06F
:1067F000C7F903B0BDE8F08F00200146F9E72DE9A5
:10680000F04D81EA030404F0004B21F000451446EA
:106810004FF0000A23F0004150EA050220D054EA6C
:1068200001021DD0C5F30A570246C5F31303C1F395
:106830001300C1F30A5640F4801543F48013A7EB0C
:106840000608101BD64608F2FD3873EB050002D38C
:1068500008F1010801E092185B41B8F1000F03DA7A
:1068600000200146BDE8F08D00204FF4801106465F
:1068700084460EE0171B73EB050705D3121B63EB71
:10688000050306434CEA010C49084FEA3000921810
:106890005B4150EA0107EDD152EA030012D082EACF
:1068A000040083EA0501084305D0101BAB4106D262
:1068B0000122002306E000224FF0004302E06FF0C7
:1068C000010253101AEB06004CEB085110EB0A00C2
:1068D00041EB0B01BDE8F04D00F043B90EB5C10F1F
:1068E00080EAE0700844CA07002140F233438DE893
:1068F0000E000A460B4600F043F903B000BD0EB58A
:1069000040F2334102910021CDE900110A460B46C5
:1069100000F036F903B000BD70B5C1F30A5201F0C2
:1069200000450024C1F3130140F2FF3341F480110C
:106930009A4201DA002070BD40F233439A42A2F23B
:10694000334203DC524200F07BF800E090402C43DD
:10695000F1D0404270BD00F0004230F000400AD05B
:10696000C10D01F56071C0F3160042EA0151C20881
:1069700040071143704700200146704730B5041EA0
:1069800071F1000404DB4FF00044404264EB01016C
:10699000141E73F1000405DB1C464FF00043524205
:1069A00063EB04038B4208BF824230BD30B5041E46
:1069B00071F1000404DB4FF00044404264EB01013C
:1069C000141E73F1000405DB1C464FF000435242D5
:1069D00063EB0403994208BF904230BD01F00043CD
:1069E00030B421F0004150EA010206D00A0DA2F5B0
:1069F0006072C1F31301002A02DC30BC0020704732
:106A0000440F44EAC104C100E01830BC00EBC2509E
:106A100000F070B830B50B4601460020202201245A
:106A200009E021FA02F59D4205D303FA02F5491B5C
:106A300004FA02F52844151EA2F10102F1DC30BD72
:106A4000202A04DB203A21FA02F00021704721FAC3
:106A500002F3D040C2F1200291400843194670472A
:106A6000202A06DBCB17203A41FA02F043EAE07312
:106A700006E041FA02F3D040C2F1200291400843FF
:106A8000194670472DE9F04791460F468046044667
:106A9000002614F8015B2DB1FFF734FD0068405D5E
:106AA000C007F6D12B2D02D02D2D18D0641E4A46DA
:106AB0003946204600F0DCF827B13968A14201D1FF
:106AC000C7F8008071054FF002040BD54042002842
:106AD00003DD02F02DFF0460A007BDE8F08746F457
:106AE0008066E4E70028F8DA02F022FF04606FF025
:106AF0000040F2E70029A8BF7047401C490008BFCA
:106B000020F00100704710B4B0FA80FC00FA0CF0DD
:106B100050EA010404BF10BC704749B1CCF1200415
:106B200021FA04F411FA0CF118BF012121430843A2
:106B3000A3EB0C01CB1D4FEA00614FEA102042BFCE
:106B4000002010BC704700EBC35010440029A4BFC4
:106B500010BC7047401C490008BF20F0010010BC69
:106B6000704710B5141E73F1000408DA401C41F19F
:106B7000000192185B411A4301D120F0010010BDC1
:106B80002DE9F04D92469B4611B1B1FA81F202E037
:106B9000B0FA80F220329046FFF7A5FC04460F467B
:106BA00040EA0A0041EA0B0153465A46084313D013
:106BB000114653EA010019D0C8F140025046FFF7D0
:106BC0003FFF05460E46504659464246FFF78BFCAE
:106BD000084305D0012004E020463946BDE8F08D89
:106BE0000020054346EAE0762C4337430A986305C4
:106BF000E40AA0EB08000022FD0A44EA47540A30E8
:106C000002D500200146E9E7010510196941DDE9D7
:106C1000084500196941BDE8F04DA2E7C1F30A52E9
:106C2000C1F3130140F2FF3341F480119A4202DABA
:106C300000200146704740F233439A42A2F23342A9
:106C400002DC5242FFF7FCBEFFF74DBC064C074D7D
:106C500006E0E06840F0010394E80700984710342C
:106C6000AC42F6D3FFF7D0FA349A0300549A0300EB
:106C70002DE9F05F82460078002715468B460AF121
:106C80000104B946302801D09DB113E014F8010B7E
:106C90000127782803D0582801D045B10AE00DB16A
:106CA000102D07D10027102514F8010B02E008254C
:106CB00000E00A250026B0460EE005FB080005FBB3
:106CC00006F1012701EB10461FFA80F8B6F5803F68
:106CD00000D3B94614F8010B294600F02FF800281C
:106CE000EBDABBF1000F05D00FB1641E00E0544693
:106CF000CBF80040B9F1000F06D002F019FE0221D6
:106D00000160C81EBDE8F09F48EA0640FAE770B58A
:106D100021F0004303430CD0C1F30A550024D5EB06
:106D2000040564EB0403D617AD1AB34102DB00205F
:106D3000014670BD201841EB025170BD3A2800D2C7
:106D4000303820F02002412A01D3A2F137008842D6
:106D500001D34FF0FF30704770B58C1810F8015B0D
:106D600015F0070301D110F8013B2A1106D110F8E4
:106D7000012B03E010F8016B01F8016B5B1EF9D1E8
:106D80002B0705D40023521E0DD401F8013BFAE76E
:106D900010F8013BCB1A921C03E013F8015B01F8D9
:106DA000015B521EF9D5A142D8D3002070BD2DE958
:106DB000F0438BB08046129D15F9046B0096144683
:106DC0001F4689462B4602A81146424600F0B9FCF0
:106DD00002A80146129A00F0A4FC4046414602AACD
:106DE000129B00F08EFC2046214602AA129B00F066
:106DF00088FC2B46384639464A46009600F0A1FCEE
:106E000002A83946129A00F08CFC02A801464246BC
:106E10002B46009600F095FC02A8014622462B4620
:106E2000009600F08EFC2046214642462B460096F6
:106E300000F087FC484649462246129B00F061FC60
:106E40002046414602AA2B46009600F07AFC3846BE
:106E500039462246129B00F054FC384639464A46D1
:106E60002B46009600F06DFC204602A9324600F049
:106E700032FE0BB0BDE8F083F0B589B01C46074682
:106E80000E461546684611461A4600F04AFC38463A
:106E900039466A46234600F034FC684669462A466D
:106EA000234600F02EFC304631466A46234600F069
:106EB00028FC09B0F0BD1AB1013A8B5C8354FAE7A3
:106EC00070472DE9F0478846B3F902101F460825A0
:106ED000CB1D202493FBF5F51F31954291FBF4F473
:106EE0004FFA84F928BF15460646494600F074FA61
:106EF0002A4630464146FFF7DEFFB7F90230ED0083
:106F00009D4220D9ED1A06EB840100228E420AD25E
:106F100051F8040D20FA05F313430B60C5F120036B
:106F200000FA03F2F2E72437384631464A4600F0C9
:106F30005FFA012807D0304631463A464B46BDE855
:106F4000F04700F01DBFBDE8F0872DE9F04793F949
:106F5000006092B004468946104631461546984670
:106F600000F070FA002840F0978002A84946424697
:106F700000F0D7FB43460AA8214602AA00F0C1FB55
:106F800002A80146424600F0CCFB4346484649462B
:106F90002A4600F0B6FB08F1040728462946424677
:106FA00000F0BFFB204621462A463B46009600F0F3
:106FB000F7FA284629462A463B46009600F0F0FAA2
:106FC000284621462A463B46009600F0BAFB20465A
:106FD00021462A46434600F094FB28462146224695
:106FE0003B46009600F0DCFA20463B4600962146E0
:106FF0002A4600F0D5FA2368DB07204613D533462E
:1070000021463A4600F0BCF931468246204600F05F
:1070100055FD06F18043013B54F8230040EACA7055
:1070200044F8230002E0314600F048FD284621469E
:10703000424600F076FB284629460AAA3B460096BF
:1070400000F07FFB284629460AAA3B46009600F03E
:1070500078FB0AA801462A463B46009600F071FBE1
:10706000204621460AAA434600F04BFB02A80246EE
:107070003B462146009600F064FB204629463246F6
:1070800000F029FD28464946324600F024FD4846D6
:1070900002A9324600F01FFD12B0BDE8F0870000E3
:1070A00000487047849903002DE9F04FEFB01E4669
:1070B000789C059023780493B4F9023092461F33EC
:1070C000202293FBF2F3DBB206939DF9187094F93A
:1070D000012007F1FF3926AB002543F829506EAB9C
:1070E00003EB89034EA88B46314643F8805C43F896
:1070F000605CFFF7E0FE94F9012056A8B118FFF795
:10710000DAFE9DF910604EA8314600F09BF98046EA
:10711000002840F02F8156A8314600F093F905462B
:10712000002840F0258104F1240840464EA93A4643
:1071300000F05EF9012840F01D81404656A93A460C
:1071400000F056F90128089040F014813B461EA833
:1071500056A9424600F03DFA0DF1380C60465946FA
:10716000524623464CF82950CDF80CC0FFF7A9FE33
:10717000DDF80CC00097604661461EAA4346CDF874
:1071800024C00DF5BC7900F0AAFA4346009716A872
:107190004EA91EAA00F0A3FA48463246059900F00F
:1071A0009AFCB300039309EB030B039A059B584623
:1071B0009918324600F08FFC04F144031946324618
:1071C00036A8079300F087FC04EB860132463EA800
:1071D000443104F1040A00F07EFC494600961EA8E2
:1071E00036AA534600F0ADFA4A465B4636A83EA999
:1071F0000094FFF7DCFD1EA801463346524600F01E
:10720000E8F91EAA484659462346FFF735FEDDF841
:1072100024C0079B0B936046059B0C933946CDF821
:1072200014C00A95CDF8349000F026FC3946054686
:1072300016A800F021FCA842B8BF284685B2DDF8A8
:1072400014C06F1E3FB26046394600F0C9FD394692
:1072500010F1000916A818BF4FF0010900F0C0FD99
:10726000002814BF0223002343EA09090DF1280B6B
:1072700032465BF8297026A8394600F02CFC039BA7
:107280003246F9182EA800F026FC31461EA800F060
:10729000A3F8023D089B1E93AEB237B2002F44DB29
:1072A00023461EAAD4F8A45026A82EA9A8473946DA
:1072B0000EA800F095FD3946051C16A818BF01253B
:1072C00000F08EFD002814BF022300231D430AABEB
:1072D00053F8257037B39DF9105036A839462A4621
:1072E00000F0F9FB039B3EA8F9182A4600F0F3FBD7
:1072F00036A83EA91EAA2346FFF7BEFD46A826A92A
:1073000036AA5346009500F01CFA36A83EA926AAD4
:107310002EAB0094FFF74BFD1EA8014646AA23465C
:1073200000F0EFF9013EB6B2B7E79DF910501EA884
:10733000014652462B4600F04CF9234626A82EA9BA
:107340001EAAFFF799FD9DF91840404626A922463E
:1073500000F04EF8012805D026A8014642462346F3
:1073600000F00EFD26A84EA92A4600F056F802E0CD
:10737000404600E028466FB0BDE8F08F00000000F6
:10738000C3F10803DB0070B501330446002003A5F8
:107390005B1920C940CAAD1920C4184720C940CA8A
:1073A000754120C420C940CA754120C420C940CAC3
:1073B000754120C420C940CA754120C420C940CAB3
:1073C000754120C420C940CA754120C420C940CAA3
:1073D000754120C4404170BD10B5002253B28B42AC
:1073E00005DA1BB2002440F823400132F6E710BD55
:1073F00010B5013AD2B253B2002B09DB1BB250F8E0
:10740000234051F823309C4204D8F2D2FF2002E0FE
:10741000002000E0012040B210BD013A30B5D2B2E8
:10742000002453B2002B09DB1BB2013A51F8235060
:1074300050F823306B401C43D2B2F2E7B4FA84F028
:10744000400930BD10B500231A465CB28C4204DA04
:1074500050F8244001332243F7E7B2FA82F04009A2
:1074600010BD00002DE9F043A3B09846019112AB86
:107470004146074610469146009300F0FDFAC0EBE6
:10748000881086B2454C33B21C40002CBEBF04F1BC
:10749000FF3464F01F040134202593FBF5F5EDB2B1
:1074A0006DB2A4B202A8294624B2FFF795FF28B214
:1074B00002AB002C03EB800010DD00221346434595
:1074C00010D259F8235005FA04F10A4340F823205A
:1074D000C4F1200225FA02F20133F0E749464246A0
:1074E00000F0F9FA0FFA88F502AB4FEA45090124DA
:1074F00003EB8505330444D40022114653B24B45B7
:1075000022DA0DF1880E0EEB840E0DF1880C18B204
:107510005EF888EC0CEB83035EF820E053F8803CC7
:10752000C3EB0E035B1A734502D08CBF012100210F
:10753000C4F1010E0DF1880C0CEB8E0E01325EF8D9
:1075400088EC4EF82030D9E7621A544202A841462E
:10755000544100F0B3FA22AA08F1FF3302EB83038F
:1075600002EB8802284652F8801C53F8802C013E1A
:1075700042EAC172414643F8802CB6B200F09EFA4E
:10758000B8E722AB03EB8404384654F8881C424623
:1075900000F0A1FA23B0BDE8F08300BF1F00008017
:1075A00070B59DF910401D4623460646FFF7E8FEDC
:1075B00030B9284631462246FFF71AFF012807D086
:1075C000304631462A462346BDE8704000F0D8BB1D
:1075D00070BDF0B50646A1B00F46084619461546DF
:1075E0001C46FFF72FFF20B130462146FFF7F4FE7F
:1075F00073E068463946224600F06DFA08A829462D
:10760000224600F068FA10A82146FFF7E5FE0123A4
:1076100018A821461093FFF7DFFE684608A9224606
:10762000FFF7E6FE002853D0009BDA0704D4684633
:10763000214600F043FA26E0089BDB0704D408A8A3
:10764000214600F03BFA3DE000281EDD08AA234653
:107650006946684600F094FB6846214600F02EFA21
:1076600010A818A92246FFF7C3FE002805DA10A8C3
:1076700001462A462346FFF783FE10A8014618AAB2
:10768000234600F07DFB10A81DE008A86A462346AB
:10769000014600F075FB08A8214600F00FFA18A873
:1076A00010A92246FFF7A4FE002805DA18A8014613
:1076B0002A462346FFF764FE18A8014610AA23466F
:1076C00000F05EFB18A82946224600F06BFCA4E7F8
:1076D000304610A9224600F0FEF921B0F0BD70B589
:1076E00090B006469DF950401D466846234600F07E
:1076F0003AF8304669462A462346FFF7B3FE10B0F3
:1077000070BD30B51C4691B0054693F9003068460F
:1077100000F029F8D4F8AC3028466946984711B0F3
:1077200030BD30B5144691B0054692F90020684648
:1077300000F0DEF9D4F8AC3028466946984711B01D
:1077400030BD70B59DF910401D462346064600F039
:1077500017FB38B1304631462A462346BDE8704013
:10776000FFF70EBE70BD2DE9F04F08B4F8CA04B49F
:1077700051F8042BA3FB028940F8048B4FF0000A58
:10778000E4FB629A4FF0000BE5FB62AB4FF0000C9C
:10779000E6FB62BC4FF0000EE7FB62CE51F8042B13
:1077A0004FF00008E3FB628940F8048BE4FB629A27
:1077B000E5FB62ABE6FB62BCE7FB62CE51F8042B53
:1077C0004FF00008E3FB628940F8048BE4FB629A07
:1077D000E5FB62ABE6FB62BCE7FB62CE51F8042B33
:1077E0004FF00008E3FB628940F8048BE4FB629AE7
:1077F000E5FB62ABE6FB62BCE7FB62CE51F8042B13
:107800004FF00008E3FB628940F8048BE4FB629AC6
:10781000E5FB62ABE6FB62BCE7FB62CE40F8049B93
:1078200040F804AB40F804BB40F804CB40F804EB4C
:107830000CBC052B00F01E810C68A0F11400A1F116
:107840001401A2F1140252F804EB4FF0000550F8B5
:10785000046BE4FB6E5652F804EB50F8047BE4FB37
:107860006E6752F804EB50F8048BE4FB6E7852F824
:1078700004EB50F8049BE4FB6E8952F804EB50F8DB
:1078800004ABE4FB6E9AA0F1140052F8044B51F8DB
:1078900004EB4FF0000CE4FB6EC540F804CB51F84C
:1078A00004EBE4FB6E5640F8045B51F804EBE4FB98
:1078B0006E6740F8046B51F804EBE4FB6E7840F817
:1078C000047B51F804EBE4FB6E8940F8048B51F81B
:1078D00004EBE4FB6E9AA0E80006062B00F0CA80D9
:1078E0000C68A0F11800A1F11801A2F1180252F8D9
:1078F00004EB4FF0000550F8046BE4FB6E5652F8B1
:1079000004EB50F8047BE4FB6E6752F804EB50F88C
:10791000048BE4FB6E7852F804EB50F8049BE4FB14
:107920006E8952F804EB50F804ABE4FB6E9A52F8FF
:1079300004EB50F804BBE4FB6EABA0F1180052F866
:10794000044B51F804EB4FF0000CE4FB6EC540F81B
:1079500004CB51F804EBE4FB6E5640F8045B51F89D
:1079600004EBE4FB6E6740F8046B51F804EBE4FBB6
:107970006E7840F8047B51F804EBE4FB6E8940F824
:10798000048B51F804EBE4FB6E9A40F8049B51F829
:1079900004EBE4FB6EABA0E8000C072B6AD008B444
:1079A0000C68A0F11C00A1F11C01A2F11C0252F80C
:1079B00004EB4FF0000550F8046BE4FB6E5652F8F0
:1079C00004EB50F8047BE4FB6E6752F804EB50F8CC
:1079D000048BE4FB6E7852F804EB50F8049BE4FB54
:1079E0006E8952F804EB50F804ABE4FB6E9A52F83F
:1079F00004EB50F804BBE4FB6EAB52F804EB50F818
:107A000004CBE4FB6EBCA0F11C0052F8044B51F80F
:107A100004EB4FF00003E4FB6E3540F8043B51F8F3
:107A200004EBE4FB6E5640F8045B51F804EBE4FB16
:107A30006E6740F8046B51F804EBE4FB6E7840F895
:107A4000047B51F804EBE4FB6E8940F8048B51F899
:107A500004EBE4FB6E9A40F8049B51F804EBE4FB62
:107A60006EAB40F804AB51F804EBE4FB6EBCA0E84D
:107A7000001808BCBDE8F08F0139C9B24BB2002B29
:107A80000BDA013111F0FF0315D059B201F1804337
:107A9000013B50F82320002304E050F82330002B52
:107AA000EAD0EEE712B152080133FBE7481E03EBC0
:107AB000401080B200E0184600B2704700EB810130
:107AC0000023884206D251F8042D43EA52030B608A
:107AD000D307F6E7704730B5002463B2934206DA65
:107AE0001BB2013451F8235040F82350F5E730BD64
:107AF0002DE9F04FB1E8005E06B4AAFB09124FF081
:107B00000003EBFB69234FF00004ECFB69344FF0FA
:107B10000005EEFB69454FF00006EBFB6A63ECFBEA
:107B20006A344918524176415B41A9FB09784FF00C
:107B3000000949F1000918EB0108A0E88001AAFB3F
:107B40000A78574158EB0608A0E88001EEFB6A4529
:107B50004FF0000A4AF1000A4FF00001ECFB6B14F1
:107B6000EEFB6B454FF00002EEFB6C255FEA590916
:107B70004941644152416D4149F10009EBFB6B3AC7
:107B80001AEB010AA0E80804ACFB0C6A66415AEB48
:107B9000020AA0E84004AEFB0E6A6E415AEB090AE5
:107BA000A0E8400406BC052A00F0E680A0F114001D
:107BB000A1F11401B1E8E043A5FB0E344FF000053C
:107BC000E6FB6E454FF00006E7FB6E564FF00007F0
:107BD000E8FB6E674FF00008E9FB6E784FF0000994
:107BE000DB1864416D4176417F4158EB080859F13B
:107BF000000950F804CB13EB0C0350F804CB54EB02
:107C00000C0450F804CB55EB0C0550F804CB56EBA4
:107C10000C0650F804CB57EB0C0758F1000859F14B
:107C20000009A0F11400EEFB0E89A0E8F803062A73
:107C300000F0A280A0F11800A1F11801B1E8E0471E
:107C4000A5FB0E344FF00005E6FB6E454FF0000635
:107C5000E7FB6E564FF00007E8FB6E674FF0000839
:107C6000E9FB6E784FF00009EAFB6E894FF0000ADD
:107C7000DB1864416D4176417F4158EB080859EBB0
:107C800009095AF1000A50F804CB13EB0C0350F821
:107C900004CB54EB0C0450F804CB55EB0C0550F816
:107CA00004CB56EB0C0650F804CB57EB0C0750F8FE
:107CB00004CB58EB0C0859F100095AF1000AA0F165
:107CC0001800EEFB0E9AA0E8F807072A54D0A0F19E
:107CD0001C00A1F11C01B1E8E04FA5FB0E344FF0F0
:107CE0000005E6FB6E454FF00006E7FB6E564FF0D1
:107CF0000007E8FB6E674FF00008E9FB6E784FF075
:107D00000009EAFB6E894FF0000AEBFB6E9A4FF018
:107D1000000BDB1864416D4176417F4158EB080848
:107D200059EB09095AEB0A0A5BF1000B50F804CB36
:107D300013EB0C0350F804CB54EB0C0450F804CBB9
:107D400055EB0C0550F804CB56EB0C0650F804CB61
:107D500057EB0C0750F804CB58EB0C0850F804CB49
:107D600059EB0C095AF1000A5BF1000BA0F11C0061
:107D7000EEFB0EABA0E8F80FBDE8F08F00000000AE
:107D8000C3F10803DB0070B50133002403A500BF75
:107D90005B1920C940CAAD1B20C0184720C940CA82
:107DA000B54120C020C940CAB54120C020C940CA41
:107DB000B54120C020C940CAB54120C020C940CA31
:107DC000B54120C020C940CAB54120C020C940CA21
:107DD000B54120C06441B4FA84F0400970BD00BFD1
:107DE0004A11012301F01F0150F822008B40184076
:107DF00070470000F0B50C4689B008220646FFF730
:107E00006AFEE36A0393236B0493636B0593A36B8E
:107E10000693E36B0793002769466A460823684682
:107E2000029701970097FFF7ABFA314605466A467D
:107E300008233046FFF7A4FA236B0393636B049384
:107E4000A36B0593E36B0693054469466A460823D2
:107E500068460797FFF794FA314605446A460823B7
:107E60003046FFF78DFA236A0093636A0193A36A91
:107E70000293A36B0693E36B0793054431466A466E
:107E800008233046059704970397FFF779FA636A4A
:107E90000093A36A0193E36AA26B0293636B03935B
:107EA00004920693E26B236A0592054407933146D8
:107EB0006A4608233046FFF763FAE36A0093236BB0
:107EC0000193636B0293236A0693A36A07930544A5
:107ED00031466A4608233046059704970397FFF713
:107EE0004FFF236B0093636B0193A36B0293E36BD0
:107EF0000393636A0693E36A07932D1A31466A4631
:107F00000823304605970497FFF73AFF636B009309
:107F1000A36B0193E36B0293236A0393636A049355
:107F2000A36A0593236B07932D1A31466A460823EB
:107F300030460697FFF724FFA36B0093E36B019392
:107F4000636A0393A36A0493E36A0593636B0793DD
:107F50002D1A314630466A46082302970697FFF7E6
:107F60000FFF2D1A16D5304631460D4A0823FFF76C
:107F700007FA4519F7D410E0094831460822FFF7FF
:107F800037FA012809D030463146054A0823FFF761
:107F9000F7FE2D1A002DEFD0F5E709B0F0BD00BFB8
:107FA00088990300F8B5036813F0010506460F46EB
:107FB000144605D001463A462346FFF7E1F9054647
:107FC00030462146FFF77AFD45B104F18042013A7F
:107FD00056F8223043F0004346F82230F8BD2DE930
:107FE000F04115468AB00446884602A800212022A6
:107FF000FEF7A7FA2E780323204641462A462F1D76
:1080000076B20293FFF78DFB2046214602AA3B463B
:108010000096FFF796FB2046214642462B46FFF787
:1080200070FB00962046214605F184023B46FFF78F
:10803000B7FA0AB0BDE8F0812DE9F04700268AB012
:10804000DFF85091B0464FF480750124374606960C
:10805000284608F05FFE38B1D9F80403204203D067
:10806000284608F04DFE26432D1D64007F1CADB24E
:10807000082FEDD34FF4BE74204608F04BFE48B1F4
:10808000204608F03DFE46F0004606AA01210020E9
:1080900008F022FE404D16F0FF0F15D001270024F6
:1080A00037420DD009EB8401D1F81005D1F8101535
:1080B000C0F3042055F82420C1F3014102B19047D8
:1080C0007F00641C082CEBD3002E5FDA4FF0FF30EA
:1080D000CDF8108054E0281910F8507F90F9000076
:1080E00027F0C008401C3BD007A9404607F047FED8
:1080F00010B34FEA9719404604F0FCF855F8207089
:108100001FB1B9F1030F03D006E0B9F1030F27D176
:1081100004A9404607F03BFE4FF0A04101EB880068
:10812000D0F8000706A9C0F3014A404607F027FE31
:1081300018B1BAF1020F03D012E0BAF1030F0FD158
:10814000B9F1030F08D1BAF1020F1DD00221404648
:1081500008F07BFD761CF6B217B149464046B84799
:10816000641C042CB7D3002E10D06A4601210020D5
:1081700008F0B2FD06990098884207D0069004984E
:10818000002634460790A6E70321E0E70AB0BDE8E1
:10819000F087000000600040AC5900202DE9F0415C
:1081A0000F460646002509E0705D02F08BFE0400D4
:1081B00003D0112CF8D002F011FD6D1CBD42F3D399
:1081C0002046BDE8F081000070B504004FF00000CB
:1081D00011D001E0401CC0B2215C2429FAD111F079
:1081E000FF0F08D0401CC5B2C6215C48FEF7A7F9B6
:1081F00000215A4806E0002070BD4254491C6D1C05
:10820000C9B2EDB2625D2C2AF7D16D1CE9B2002231
:1082100005E08518521C491C2B73D2B2C9B2635CAD
:108220002C2BF6D1491CC9B2002206E08518521C3D
:10823000491C85F82630D2B2C9B2635C2C2BF5D12B
:10824000491CC9B2002206E08518521C491C85F859
:108250003A30D2B2C9B2635C2C2BF5D1491CC9B2F9
:10826000002206E08518521C491C85F83E30D2B227
:10827000C9B2635C2C2BF5D1491CC9B2002206E0BF
:108280008518521C491C85F85430D2B2C9B2635CBF
:108290002C2BF5D1491CC9B2002206E08518521CCE
:1082A000491C85F85830D2B2C9B2635C2C2BF5D189
:1082B000491CC9B2002206E08518521C491C85F8E9
:1082C0005C30D2B2C9B2635C2C2BF5D1491CC9B267
:1082D000002206E08518521C491C85F86230D2B293
:1082E000C9B2635C2C2BF5D1491CC9B2002206E04F
:1082F0008518521C491C85F86E30D2B2C9B2635C35
:108300002C2BF5D1491CC9B2002206E08518521C5D
:10831000491C85F87E30D2B2C9B2635C2C2BF5D1F2
:10832000491CC9B2002206E08518521C491C85F878
:108330008230D2B2C9B2635C2C2BF5D1491CC9B2D0
:10834000002206E08518521C491C85F89230D2B2F2
:10835000C9B2635C2C2BF5D1012070BDE850002020
:108360002DE9F0414FF0FF340A25802007F004FB8F
:1083700007002FD08021FEF7E2F820A220A1384686
:1083800001F0AAFA00F0FF084FF4FA76082007F08F
:108390007FF9044606F0F2F8024623461AA10020AF
:1083A00000F074FE1BA1002000F070FE414638462C
:1083B000FFF7F4FE00223146104600F035FB04467C
:1083C000304604F00BFD6D1E0CB1002DDEDC38468E
:1083D00005F0A0FC082007F05BF9054606F0CEF892
:1083E00002462B4608A1002000F050FE22460EA1B6
:1083F000002000F04BFE2046BDE8F0814154000013
:1084000025730D0A000000005B25645D205B257369
:108410005D3A20000D0A206175746F2062617564F9
:1084200020726574790D0A0047736D5F4175746F32
:10843000426175642072657461766C3D2025640D1F
:108440000A0000002DE9F04300254FF4487791B071
:1084500001262C46384604F0C1FC40216846FEF750
:108460006EF8B946E8464FF47A7700BF00F046FA56
:10847000002805DC641CA4B2022004F0AFFC11E06B
:10848000402D03D208F805006D1CEDB2032D09D96B
:10849000012E07D112A16846FEF75CF810B1002644
:1084A0004C46E3E7BC42E1D3012E15D1FFF758FF5C
:1084B000082007F0EDF8044606F060F8024623466F
:1084C00009A1002000F0E2FD0AA1002000F0DEFD7D
:1084D0004FF4E13000F0A0F811B0BDE8F0830000E7
:1084E0005244590D0A0000005B25645D205B257332
:1084F0005D3A20000D0A202046697820626175648B
:108500000D0A00002DE9F0414FF0FF36344680207F
:1085100007F032FA050034D08021FEF710F823A2CC
:1085200025A1284601F0D8F9C1B22846FFF736FE4A
:1085300080212846FEF703F801224FF4FA712846FD
:1085400000F072FA0446082007F0A2F8074606F089
:1085500015F802463B461AA1002000F097FD2A4676
:108560001AA1002000F092FD002C07DB1EA1284676
:10857000FDF7F0FF08B1002400E03446284605F07E
:10858000C9FB082007F084F8054605F0F7FF02460E
:108590002B460BA1002000F079FD224616A10020F9
:1085A00000F074FD2046BDE8F081000041542B43EB
:1085B00050494E3F0000000025730D0A00000000E6
:1085C0005B25645D205B25735D3A200047736D5F1A
:1085D000436865636B53696D436D6420636D643DEF
:1085E0002025730D0A0000002B4350494E3A2052BB
:1085F000454144590000000047736D5F436865635F
:108600006B53696D436D642072657461766C3D20B7
:1086100025640D0A00000000F8B506464FF0FF344F
:10862000802007F0A9F9050018D08021FDF787FF09
:1086300014A00090334614A215A1284601F04CF96D
:10864000C1B22846FFF7AAFD01224FF4FA710020BB
:1086500000F0EAF90446284605F05CFB082007F024
:1086600017F8054605F08AFF02462B460BA10020AD
:1086700000F00CFD22460CA1002000F007FD204672
:10868000F8BD00003B26570041542B4950523D0095
:108690002573256425730D0A000000005B25645DC9
:1086A000205B25735D3A200047736D5F4669784211
:1086B000617564436D642072657461766C3D20253C
:1086C000640D0A0010B5062008F099FA0E2008F093
:1086D00096FABDE810400F2008F091BA70B504205A
:1086E00006F0ACFF044605F049FF0246234632A1DE
:1086F000002000F0CBFC33A1002000F0C7FCFFF706
:10870000A1FE042006F09AFF044605F037FF02465A
:10871000234629A1002000F0B9FC2FA1002000F081
:10872000B5FC002000F004F9042006F087FF0446A1
:1087300005F024FF024623461FA1002000F0A6FCFE
:1087400028A1002000F0A2FC002405F01FFF4FF438
:108750007A7518E0284604F041FB641C052C12DDF4
:10876000022006F06BFF044605F008FF0246234690
:1087700011A1002000F08AFC1FA1002000F086FC5F
:108780004FF0FF3070BDFFF7BDFE0028E2DB042094
:1087900006F054FF044605F0F1FE0246234606A10A
:1087A000002000F073FC1BA1002000F06FFC00F023
:1087B000ADF9002070BD00005B25645D205B257372
:1087C0005D3A2000636865636B206175746F206299
:1087D0006175640D0A000000736574206563686F3D
:1087E0000D0A0000636865636B2073696D20636127
:1087F00072640D0A00000000636865636B20736992
:108800006D20636172642074696D656F75740D0A03
:108810000000000054657374207769746820486F05
:108820006C6F6772616D206F6E204368696E6120A6
:1088300054656C65636F6D0D0A00000010B508206B
:1088400006F026FF044605F099FE0246234616A1CF
:10885000002000F01BFC17A1002000F017FC0021F5
:10886000062008F018FAC82004F0B8FA0121062002
:1088700008F011FA00210E2008F00DFA3C2004F057
:10888000ADFA01210F2008F006FA4FF4967004F0BB
:10889000A5FA00210F2008F0FEF9BDE810404FF4C2
:1088A000FA7004F09BBA00005B25645D205B2573C1
:1088B0005D3A2000474D535F506F77657255700DDC
:1088C0000A0000000C4910B50A4B4A884FF4C864EE
:1088D0009854521C93B24B808888401C82B200206E
:1088E0008A80A34200D14880A24202D14880888079
:1088F000088010BDA84A00200A3000204FF0FF3049
:1089000072B609498A8862B108480B88C05C5B1C52
:108910009BB20B80B3F5C86F01D100230B80521EB0
:108920008A8062B6704700000A300020A84A002002
:1089300070B506464FF0FF34802007F01DF80500A3
:1089400016D08021FDF7FBFD334613A213A1284664
:1089500000F0C2FFC1B22846FFF720FC01224FF40D
:10896000FA71002000F060F80446284605F0D2F9BC
:10897000082006F08DFE054605F000FE02462B4657
:1089800008A1002000F082FB224609A1002000F08F
:108990007DFB204670BD00004154450025732564D1
:1089A0000D0A00005B25645D205B25735D3A2000A5
:1089B00047736D5F5365744563686F436D642072E0
:1089C000657461766C3D2025640D0A0010B5114C6C
:1089D0008AB0207802281BD002F0F4F918220E4940
:1089E0006846FDF793FD0D4806904FF40060079030
:1089F0000B4808904FF4807009900623094A06A995
:108A0000684602F00DFA08B102F0E8F80220207082
:108A10000AB010BD08300020A486030050330020A7
:108A2000503B0020697103002DE9F05F07460C46BA
:108A300093464FF0FF3900254FF4C8612B48FDF7EE
:108A40007EFDBBF1000F01D0042000E00220804633
:108A500027480178254801290AD08246FFF74EFFB2
:108A600006001DD5641EA4B2012004F0B7F937E05A
:108A7000FFF744FF002805DA641EA4B2012004F0C9
:108A8000ADF90AE078556D1C78191AA110F8012C7F
:108A9000002000F0FBFA641EA4B2002CE8D121E013
:108AA000024616A1002000F0F1FA0AF805606D1CDC
:108AB000454515D3BBF1000F01D011A100E012A173
:108AC0000A48FDF747FD58B1454506D92FB1A0EB3F
:108AD0000A0206493846FDF719FD4FF0000901E08A
:108AE000002CBBD14846BDE8F09F0000CC420020DE
:108AF00000300020253032580000000025630000BF
:108B00004F4B0D0A000000004F4B000070B548A00D
:108B100000F0FAF880214948FDF711FD01224FF4D9
:108B200054614648FFF780FF4FF47A75284604F0F9
:108B300055F943A000F0E8F880214048FDF7FFFC1C
:108B400044F62064012221463C48FFF76DFF284689
:108B500004F044F942A000F0D7F880213748FDF72F
:108B6000EEFC012269003548FFF75EFF284604F05D
:108B700035F93EA000F0C8F880213048FDF7DFFC51
:108B8000012221462D48FFF74FFF284604F026F921
:108B90003DA000F0B9F880212848FDF7D0FC012263
:108BA00021462648FFF740FF284604F017F939A070
:108BB00000F0AAF880212148FDF7C1FC01222146DE
:108BC0001E48FFF731FF284604F008F934A000F0F2
:108BD0009BF880211948FDF7B2FC01222146174875
:108BE000FFF722FF284604F0F9F83AA000F08CF8CD
:108BF00080211248FDF7A3FC012221460F48FFF710
:108C000013FF082006F044FD044605F0B7FC0246B9
:108C1000234633A1002000F039FA084A33A100208E
:108C200000F034FA2846BDE8704004F0D7B80000E0
:108C300041542B434F50533D3F0000008C3C0020DB
:108C400041542B434F50533D312C302C2243484943
:108C50004E41204D4F42494C45222C30000000002F
:108C600041542B514E57494E464F000041542B5111
:108C700049435347503D312C312C22434D4343222D
:108C80002C2C2C310000000041542B5149414354FD
:108C90003D31000041542B51494143543F000000F5
:108CA00041542B51494F50454E3D312C312C2254CB
:108CB0004350204C495354454E4552222C223132C8
:108CC000372E302E302E31222C302C323032302CB8
:108CD0003000000041542B51495354415445000089
:108CE0005B25645D205B25735D3A200041542B5168
:108CF0004953544154452047534D5F525350203DF2
:108D00002025730D0A00000010B504468021074895
:108D1000FDF715FC224606A1044800F0DDFDC1B2B6
:108D2000BDE810400148FFF739BA0000503C002070
:108D300025730D0A00000000F8B56D4604466E1C50
:108D40002946282000F02BF8002827D0314629207A
:108D500000F025F8002821D0BDF800002080294629
:108D60002A2000F01CF8002818D031462B2000F0F3
:108D700016F8002812D0BDF80000608029462C208B
:108D800000F00DF8002809D031462D2000F007F83A
:108D9000002803D0BDF80000A0800120F8BD10B568
:108DA00007F076FA08B1002010BD012010BD38B5DB
:108DB000044669462020FFF7F2FF00280ED09DF8F8
:108DC000000004F0070100F0F80001438DF80010E6
:108DD000202000F08BF8002800D0012038BD38B5E5
:108DE000044669462320FFF7DAFF00280ED09DF8DD
:108DF000000000F0CF0040EA0410C1B28DF800106E
:108E0000232000F073F8002800D0012038BD0000B6
:108E10001CB5044669462020FFF7C1FF002816D084
:108E200001A92320FFF7BBFF002810D09DF80010F8
:108E300021480A0905D1027802F0F0020A438DF8B0
:108E400000202CB1012C18D0022C09D000201CBD10
:108E50009DF80010017001F00F008DF800001AE07D
:108E60009DF8000000F0F7008DF800009DF8040068
:108E700000F0F70040F008000BE09DF8000000F063
:108E8000F70040F008008DF800009DF8040000F0A5
:108E9000F7008DF804009DF80010202000F026F85F
:108EA0000028D4D09DF80410232000F01FF80028DB
:108EB000CDD001201CBD0000D332002038B50446BF
:108EC00069462020FFF76BFF00280ED09DF80000B8
:108ED00000F00F0040EA0410C1B28DF8001020200D
:108EE00000F004F8002800D0012038BD10B507F0CC
:108EF000D5F908B1002010BD012010BDBFF34F8F80
:108F000005480168054A01F4E06111430160BFF3BF
:108F10004F8F00BFFDE700000CED00E00400FA05F4
:108F200070B54FF48076304607F000F8114CB50567
:108F300060B1304607F001F80120C5F808036079F8
:108F400020B9012060712168002088474FF48276A3
:108F5000304606F0EBFF00280AD0304606F0EDFF61
:108F60000220C5F808032168BDE8704001200847C9
:108F700070BD0000483100202DE9F041164E4FF43D
:108F8000A071304608F0D2FA0025EFF31184C0201A
:108F900080F31188D6F80475B115304608F0C6FA8A
:108FA0000FF0AAF9381A20F07F46012E07D90FF0EA
:108FB00095F9022803D000260FF0AAF90543761E82
:108FC000FAD225B105494FF08050086040BFE0B2A9
:108FD00080F31188BDE8F0810010014004ED00E04D
:108FE00004220021014805F081BF0000004002403A
:108FF00000F0F6BAF8B50D4B0646144618780D4643
:1090000008B900F0EDFA00208DF80000684601F084
:1090100083FF22462946304600F00AF804469DF8B0
:10902000000001F09DFF2046F8BD00004C610020CB
:1090300070B50E46144900EB400001EBC005144624
:10904000E86A183520B101280FD0022805D113E0B5
:10905000284600F0F9FAA04201D2002411E022468D
:109060003146284600F016FC0BE0284600F0ECFAEA
:10907000A042F4D20446F2E73146284600F0DDFB78
:109080000446204670BD00004C6100200FB408B5B6
:1090900004A900916A46039900F003F801B05DF855
:1090A00014FB2DE9F04198B0064607A80290402035
:1090B0000025CDE90305CDE9055690460C4614F888
:1090C000011B002973D0252908D002A800F096FBC7
:1090D00005980028F3DA18B0BDE8F08100200121DE
:1090E0002278232A1ED02B2A19D02D2A02D0302AEA
:1090F00008D102E040F0010001E040F00200641CF1
:109100000029EDD100222178A1F130030A2B0CD2E5
:1091100002EB820201EB4202303A641CF3E740F0BA
:109120000400ECE740F00800E9E70023CFB22E2F5F
:109130000BD114F8011FA1F130070A2F05D203EB60
:10914000830301EB4303303BF3E76C290DD068291F
:109150000BD0702954D00BDC252916D0582931D0DA
:1091600063290CD0642913D114E014F8011FECE733
:10917000732934D075291BD0782909D122E0D8F879
:109180000000011DC8F80010017802A800F036FBAD
:10919000641C9DE7D8F800100F1DC8F8007009681E
:1091A000CDE900200A2202A800F05AFAF0E733E0E5
:1091B000D8F800100F1DC8F800700968CDE900202C
:1091C0000A2208E0D8F800100F1DC8F800700968DE
:1091D000CDE90020102202A800F0A6FAD8E7D8F8BE
:1091E0000000011DC8F80010076817F8011B0029CE
:1091F000CED002A800F002FB05980028F5DAC7E7F8
:10920000D8F80000011DC8F8001001680820CDE959
:10921000000503461022DEE7059800287FF75BAFC4
:10922000049820B1024607A93046FFF7E3FEDDE9C6
:109230000410084405904EE7014902480DF048BD6E
:109240007859002000300040F8B54FF04020044627
:10925000114E4FF48C7108F010FC00281AD0002534
:10926000C4F81851D4F818010090F07F3446FF2854
:1092700006D0A17F11B107F0F9FC01E007F004FD71
:1092800065772572D4E9002101B004F10800BDE83A
:10929000F0401047F8BD0000585A0020074810B5AC
:1092A00000680FF057F9012807D105490007086049
:1092B00040BFBFF34F8FBFF36F8F10BD3832002018
:1092C00004ED00E0F0B5B2480023021D0178101D46
:1092D00001254FF0805406290BD11678360708D1A6
:1092E0000678C6F30316032E06D0042E04D0052EEE
:1092F00002D0062907D00EE0B4F82463A54FC6F3C8
:1093000004263E6002E01678360704D10678C6F3DC
:109310000316032E02D0062904D00FE09F4F9E4E65
:109320007E670EE01678360708D10678C6F3031676
:10933000032E06D0042E04D0052E02D0062907D015
:109340000EE0D4F84462964FC6F342363E6002E027
:109350001678360704D10678C6F30316032E02D01A
:10936000062906D011E08F4E376827F080773760E6
:109370000EE01678360708D10678C6F30316032EDA
:1093800006D0042E04D0052E02D006290AD011E002
:109390004FF08046C6F80C31C6F81031804E361FAB
:1093A000336002E01678360704D10678C6F3031658
:1093B000032E02D0062905D00CE0794F032664372E
:1093C0003E600AE01678360704D10678C6F3031625
:1093D000032E02D006290DD014E0734F05263E60FF
:1093E000714E78363560704E083633603F263F1D2B
:1093F0003E6002E01678360704D10678C6F30316FD
:10940000052E02D0062957D062E0684E3668684FB4
:109410003E60664E361D36683F1D3E60634E083620
:1094200036683F1D3E60614E0C3636683F1D3E601B
:109430005E4E103636683F1D3E605C4E1436366810
:109440003F1D3E60594E18363668594F20373E60F2
:10945000564E1C3636683F1D3E60544E20363668E8
:109460003F1D3E60514E243636683F1D3E604F4ED4
:10947000283636683F1D3E604C4E2C3636683F1D00
:109480003E604A4E30363668494F40373E60474E60
:10949000343636683F1D3E60444E383636683F1DD0
:1094A0003E60424E3C3636683F1D3E603F4E403681
:1094B00036683F1D3E6002E01678360708D1067810
:1094C000C6F30316032E06D0042E04D0052E02D0B8
:1094D000062907D019E0D4F85812364A01F04F0196
:1094E000116002E0117809070FD10078C0F3031072
:1094F000032803D0042801D0052806D12E4801688E
:10950000C90702D06FF001010160D4F830010628CC
:1095100008D1D4F83401062804D12848016841F460
:10952000806101601F487438016841F47001016076
:10953000BFF34F8FBFF36F8F4FF01021D1F80C02A4
:10954000C00720D01E4A15601E480468002CFCD0BD
:10955000D1F80C4224F00104C1F80C420168002942
:10956000FCD0136001680029FCD0BFF34F8F0D4879
:10957000F0380168144A01F4E06111430160BFF35F
:109580004F8F00BFFDE7124910480860F0BD000092
:10959000E00F00F0403501400DF0ADBA00C00740CB
:1095A0003C050040FCED00E01056004004040010B3
:1095B00020C50040E40E0040000400403C1700407D
:1095C00004E5014000E401400400FA050090D003E6
:1095D000D4320020014800680047000050310020CC
:1095E00010B5124C02202061606111A0A06104F14D
:1095F0007800E0614FF4007020620020A062606299
:109600000BA1A164E06204F51E71E1641021A06564
:10961000C4E91410E06509A1E01DFCF7C1FF08A131
:109620002046FCF7BDFF2020A07110BD4C6100203A
:109630005465726D696E616C0000000052545400F4
:1096400053454747455200000269C1688A4203D822
:109650008068401A104400E0501A401E7047000015
:109660002DE9FC5F0E008146DDE90C47C6F10000E4
:1096700098469346824600D40846012503E000BF81
:1096800090FBFBF06D1C5845FADAA84500D9454619
:1096900024B1002E01DB780700D5641EB80702D57F
:1096A000B8F1000F0FD0F8070DD164B1A5420AD26E
:1096B00020214846641E00F0A1F8D9F80C000028CB
:1096C000F3DABDE8FC9FD9F80C000028F9DB002E86
:1096D00002DA56462D2102E0780707D52B214846AD
:1096E00000F08CF8D9F80C000028EADB07F0030042
:1096F00002280FD1B8F1000F0CD15CB1A54209D2FC
:1097000030214846641E00F079F8D9F80C00002892
:10971000F3DAD6E7CDE9004743465A463146484694
:1097200000F002F8CDE700002DE9F84F8246DDE9B0
:109730000A4B0126984691460D460846374602E0F8
:10974000B0FBF9F07F1C4845FAD2B84500D947462E
:109750005FEACB7017D1B4B15FEA8B7002D5B8F174
:10976000000F02D0202000900BE03020FBE7504695
:10977000641E009900F042F8DAF80C00002838DB8B
:109780000CB1A742F3D3DAF80C00002831DB00BF9C
:10979000B8F1010F02D9A8F1010803E0B5FBF6F01A
:1097A000484502D306FB09F6F2E7DFF84C8000BF1C
:1097B000B5FBF6F000FB165518F80010504600F007
:1097C0001DF8DAF80C00002803DBB6FBF9F6002ED2
:1097D000EED15FEACB700CD0002C0AD0A74208D2A1
:1097E00020215046641E00F009F8DAF80C00002829
:1097F000F2DABDE8F88F0000E68A030010B50446EF
:10980000D4E90130421C934205D323681954A26065
:10981000E068401CE060D4E90102824209D121687D
:109820002069FFF7E7FBA168884203D04FF0FF30C3
:10983000E06010BD0020A06010BD2DE9F047C468B5
:109840001746894606464FF000083069A04201D904
:10985000051B02E0B168201A0D1AB0686D1E001BCE
:10986000A84200D80546BD4200D33D4670682A464E
:1098700020444946FCF74AFEB0687F1B2C44A844AC
:10988000A944A04200D10024F460002FDDD140465D
:10989000BDE8F0872DE9F04104468846D4E9020787
:1098A000C51BE168606816460844B54206D94146C2
:1098B000FCF72CFEB819E060BDE8F0812A4641466D
:1098C000FCF724FE761B08EB050132466068FCF7C6
:1098D0001DFEE660F0E700000FB4084B10B504A9C8
:1098E00002AA039800F022FD044602A9002001F01C
:1098F000B4F8204610BC5DF814FB00005BAA02001F
:1099000003B401984100009850EAC12018BF042018
:109910004A0D18BF40F0010040F2FF72B2EB515FF8
:1099200008BF40F00200012808BF052002B07047C0
:1099300000487047E032002070B52DED020B2DED90
:109940000A8B82B00D98C40F20F00045AE488542C6
:1099500048D3AE48854219D30C99C5F31300084388
:1099600009D09DED0C0B02B0BDEC0A8B02B0BDE836
:10997000704000F09DBB002C14BF9FEDA50B9DED2A
:109980000C0B02B0BDEC0A8B02B070BD9FEDA20BB8
:1099900053EC102B9DED0C0B51EC100BFDF706F862
:1099A0000AD2022000F0DEFB02B0BDEC0A8B02B04E
:1099B000BDE8704000F088BB9FED990B53EC102B75
:1099C0009DED0C0B51EC100BFCF7D8FF0AD20220D6
:1099D00000F0C8FB02B0BDEC0A8B02B0BDE87040DD
:1099E00000F082BB90489FED92BBA8425CD29248A7
:1099F000854219D29148784400EBC40090ED000BE9
:109A000053EC102B9DED0C0B51EC100BFCF77FFE73
:109A100041EC1A0B8A48784400EBC40090ED009B9F
:109A2000C4F10100041B36E09FED870B53EC102BB3
:109A30009DED0C0B51EC100BFCF76FFE41EC100B85
:109A40008348784400EBC40090ED001B51EC100BF0
:109A500053EC112BFCF7BAFDFCF75EFF0446FCF754
:109A60003DFF41EC180B9FED7C0B53EC102BFCF7EA
:109A700054FE9DED0C1B53EC112BFCF74BFE41ECFF
:109A80001A0B9FED770B51EC180B53EC102BFCF7D6
:109A900044FE41EC190B51EC1A0B53EC192BFCF75B
:109AA00036FECDE90C011BE06F48854217D29FEDD1
:109AB000700B53EC102B9DED0C0B51EC100BFCF7C5
:109AC00085FD53EC1B2BFCF771FF08D29DED0C0BB1
:109AD00053EC1B2B51EC100BFCF778FD6EE00024CF
:109AE0009DED0C0B53EC102B51EC100BFCF715FEFD
:109AF00041EC180B60480521B0EE480AF0EE680A08
:109B0000784400F059FA53EC182B51EC100BFCF789
:109B100004FE9DED0C1B53EC112BFCF7FBFD41ECFF
:109B2000180B9FED570B5CB353EC182B51EC100B3B
:109B3000FCF7EDFD9DED0C0B41EC1C0B53EC182BD1
:109B400051EC100BFCF7E9FD53EC1C2BFCF757FE16
:109B500053EC192BFCF7DEFD53EC1A2BFCF7D7FD69
:109B600053EC1B2BFCF7D6FDCDE900016FF47F70A1
:109B7000844226DB01EB045001909DED000B00E7D1
:109B800053EC102B51EC180BFCF7C1FD9DED0C0BA9
:109B900041EC190B53EC182B51EC100BFCF7BDFDED
:109BA00053EC192BFCF72BFE9DED0C1B53EC112BEA
:109BB000FCF7ADFD53EC1B2BFCF7ACFD41EC100B9F
:109BC000DFE608464FF07A5101EB04519FED2E0B72
:109BD000084453EC102B01909DED000B51EC100B41
:109BE000FCF79BFD0D4645EC100B044651EC100BA9
:109BF000FFF786FE042808BF00F076FA45EC104B0C
:109C0000BFE6000000000000422E86400000F07F0A
:109C10000000000000000000EF39FAFE422E8640EE
:109C200051302DD5104987C0422ED63F000000008C
:109C3000000000000000F03FB2A2F03F06F5000077
:109C4000F6F4000000000000FE822B654715F73F88
:109C5000AAF40000000000000000E0FE422EE63FF3
:109C6000763C7935EF39EA3D0000303E00000000D7
:109C70009C7500883CE4377E1CF400000000000066
:109C80000000000000000040000000000000700123
:109C900010B52DED068BB0EE408AF0EE608A18EE1E
:109CA000101A84B018EE900A8DED008B002918BFB1
:109CB0000121084320F00040C0F17F6000F1E04046
:109CC000C00F9FED47AB9FED489B06D153EC192B7E
:109CD00051EC180BFCF752FE09D1B0EE480AF0EE39
:109CE000680A00F0E5F904B0BDEC068B10BD9FEDED
:109CF000400B51EC180B53EC102BFCF73FFE01BF4F
:109D0000B0EE4A0AF0EE6A0A04B0BDEC068B08BF5A
:109D100010BD02AA51EC180B05F09FFE9FED360B0B
:109D200041EC180B53EC102B9DED020B51EC100B7A
:109D3000FCF724FE38BF324C14D39FED330B53ECA9
:109D4000102B9DED020B51EC100BFCF72FFE38BFD2
:109D50004FF4006406D39DED020B51EC100BFCF7A1
:109D6000DBFD04469FED2A0B51EC180B53EC102B36
:109D7000FCF7D3FC03F018FD224605F063F941EC33
:109D8000180B04F57F7040F2FB71884221D353EC2D
:109D90001A2B51EC180BFCF7F1FD05D1022000F055
:109DA000E1F900F0A1F99EE753EC192B51EC180BE7
:109DB000FCF7E4FD05D1022000F0D4F900F084F9AD
:109DC00091E751EC180BFFF79BFD042808BF00F04A
:109DD0008BF9B0EE480AF0EE680A84E70000000054
:109DE0000000000000000000000000000000F07F04
:109DF000000000000000F0FF000000000000A0C014
:109E000000F8FFFF00000000000000000000A0407C
:109E1000EF39FAFE422EE63F30B540F2FF742DEDE9
:109E2000048BF0EE608A18EE901A85B0B0EE408A8E
:109E30009FED2B9B05468DED008B34EA115147D0E9
:109E400053EC192B51EC180BFCF798FD40D02A4627
:109E500051EC180BFCF75BFF41EC180B18EE900A65
:109E60008DED008B34EA10501CD053EC192B51ECC3
:109E7000180BFCF783FD2BD1022000F073F900F0E2
:109E800033F910EE901A18EE900A8DED020B8DED5D
:109E9000008B61F31E0003909DED020B05B0BDEC3D
:109EA000048B30BD022000F05DF900F00DF910EEDA
:109EB000901A18EE900A8DED020B8DED008B61F378
:109EC0001E0003909DED020B05B0BDEC048B30BD70
:109ED00005B0B0EE480AF0EE680ABDEC048B30BD68
:109EE000000000000000000031B52DED020BDDE99F
:109EF00000C2BCF1000F14BF0121002141EA420160
:109F000011F5001F07D99DED000B80ED000B9DEDB5
:109F1000000B03B030BDC2F30A510024A1F2FF319F
:109F200002F0004314291EDA0029B8BFC0E900433B
:109F300029DB204D25FA01F102EA010555EA0C0C56
:109F40001BD022EA0101C0E9004190ED000B53EC67
:109F5000102B9DED000B51EC100BFCF7D8FB03B060
:109F600041EC100B30BD332907DC4FF0FF351439BD
:109F700025FA01F11CEA010F09D19DED000B80EDDE
:109F8000000BCDE900439DED000B03B030BD2CEA82
:109F90000101C0E9001290ED000B53EC102B9DED78
:109FA000000B51EC100BFCF7B2FB03B041EC100BB3
:109FB00030BD0000FFFF0F0070B504462DED028B91
:109FC0004D1E00EBC500B0EE408AF0EE608A90EDC9
:109FD000000B35F0060017D053EC182B51EC100B8A
:109FE000FCF79BFB41EC100B6D1E04EBC50090EDE4
:109FF000001B51EC100B53EC112BFCF7E7FA41EC72
:10A00000100B35F00600E7D1022D36D0042D1CD000
:10A01000062D1CBFBDEC028B70BD53EC182B51EC10
:10A02000100BFCF77AFB94ED0A1B53EC112BFCF799
:10A03000CDFA53EC182BFCF770FB94ED081B53EC96
:10A04000112BFCF7C3FA41EC100B53EC182B51EC1D
:10A05000100BFCF762FB94ED061B53EC112BFCF785
:10A06000B5FA53EC182BFCF758FB94ED040B53ECAA
:10A07000102BFCF7ABFA41EC100B53EC182B51EC06
:10A08000100BFCF74AFB94ED021B53EC112BFCF771
:10A090009DFA53EC182BFCF740FB94ED001B53EC9E
:10A0A000112BFCF793FABDEC028B41EC100B70BD49
:10A0B00010B553EC102B51EC100BFCF787FA41EC68
:10A0C000100B10BD000000009FED050B10B553EC08
:10A0D000102B51EC100BFCF720FB41EC100B10BDCA
:10A0E00000000000000000709FED050B10B553EC60
:10A0F000102B51EC100BFCF710FB41EC100B10BDBA
:10A10000000000000000001002E008C8121F08C193
:10A11000002AFAD170477047002001E001C1121FE8
:10A12000002AFBD1704700000121202803DA81407A
:10A130000548014003E0402802DA2038814009B197
:10A140000120704700207047FC06FFBD082806D29A
:10A1500028B1012803D0042801D001207047002035
:10A16000704700000149086070470000E03200209D
:10A1700010B501F08DFE084800214170817007493B
:10A180004160074981600749C16001F07EFDBDE87B
:10A19000104001480CF00CBD78AA00206176030045
:10A1A00089760300357603002DE9FF5F82B0002138
:10A1B000DDE90430020DDDF840B0034318D044F669
:10A1C0001050A2F2FF3242431514119801281FD0FB
:10A1D000A5EB0B00401C5FEA000A4FF000064E4F53
:10A1E000DFF83891B046504615D5CAF1000413E0A7
:10A1F000119801244AA3012801D16FEA0B010298AA
:10A20000119AC0E90031C0E9024206B0BDE8F09FF2
:10A21000CBF10000DFE704460021404A491842EB39
:10A220000450CDE9001012E0E00707D032463B466B
:10A2300040464946FCF771FA8046894632463B461D
:10A2400010461946FCF769FA06460F466410002CC2
:10A25000EAD1DDE90401DDE90023BAF1000F06DAF5
:10A26000FCF75BFA42464B46FCF757FA05E0FCF771
:10A27000C6FA42464B46FCF7C2FA04460E46002296
:10A28000284BFCF793FB03D84FF0FF30014607E063
:10A290000022254B20463146FCF798F9FCF7BEFC1E
:10A2A000102409E0002C0ADB0A220023FCF7EAF85C
:10A2B000039B30321A55641E50EA0102F2D1641C2D
:10A2C000039AC4F111031444119A012A03D0012204
:10A2D00008430DD10AE0084304D000204FF0110BD1
:10A2E000119072E7A3EB0B056D1E0DE05B4504DDDD
:10A2F0004FF0000205F1010504E003DA4FF000021F
:10A30000A5F10105002AECD002981199C0E90231AB
:10A31000C0E9004579E70000000014400000F03F6C
:10A32000300000000000F0430000E03F2DE9FF4F47
:10A3300095B09B468946064600250FE2252877D131
:10A3400000242746F84A0121059400E0044316F84A
:10A35000013F203B01FA03F01042F7D130782A2860
:10A3600011D06FF02F033078A0F13002092A16D8EF
:10A37000059A44F0020402EB820203EB420210440D
:10A38000761C0590EFE759F8042B0592002A03DAB2
:10A39000504244F40054059044F00204761C307896
:10A3A0002E2816D116F8010F44F004042A280DD0E7
:10A3B0006FF02F023078A0F13003092B09D807EB9A
:10A3C000870302EB4303C718761CF3E759F8047BB5
:10A3D000761C30786C280FD006DC4C2817D0682803
:10A3E0000DD06A2814D104E0742810D07A280FD137
:10A3F0000DE044F400140AE044F4801401E044F455
:10A4000040147278824202D104F58014761C761CC6
:10A41000307866280BD013DC582877D009DC002868
:10A4200075D04528F6D04628F4D047281AD19DE1AA
:10A4300018E0632835D0642879D0652812D195E1D9
:10A44000702873D008DC6728F1D069286FD06E2897
:10A450000DD06F2806D1B5E073282CD0752875D0A3
:10A46000782874D05A46179990476D1C75E1C4F34B
:10A470000250022809D003280DD0D9F80010042872
:10A480000DD00D6009F1040967E1D9F80010EA1751
:10A49000C1E90052F6E7D9F800100D80F2E70D701F
:10A4A000F0E719F8041B8DF8001000208DF801006A
:10A4B000EA46012003E059F804AB4FF0FF30610792
:10A4C0004FF0000102D40DE008F101018846B942C5
:10A4D0000FDA8045F8DB1AF808100029F4D108E0FB
:10A4E00008F1010188468142FADB1AF808100029B8
:10A4F000F6D105985B46A0EB080721463846179A27
:10A5000000F094FA284400EB080507E04DE029E14B
:10A510000DE01AF8010B5A4617999047B8F1010857
:10A52000F7D25B4621463846179A13E142E00A22E9
:10A530000092C4F302524FF0000A022A08D059F8E0
:10A5400004CB032A4FEAEC710AD00DE029E02AE09F
:10A5500009F1070121F00702F2E802C1914609E082
:10A560000FFA8CFC4FEAEC71042A03D14FFA8CFCF1
:10A570004FEAEC71002907DA0A460021DCF1000CF1
:10A5800061EB02012D2202E0220504D52B228DF879
:10A590000420012203E0E20701D02022F7E79046E1
:10A5A00059E00A2102E010220DE010214FF0000ACC
:10A5B00000910BE010224FF0000A44F00404082739
:10A5C000009203E008224FF0000A0092C4F3025206
:10A5D000022A05D059F804CB0021032A08D009E04B
:10A5E00009F1070121F00702F2E802C1914605E0F6
:10A5F0001FFA8CFC042A01D10CF0FF0C4FF000086C
:10A60000220728D5702806D0009B83F0100353EA58
:10A610000A0305D00EE040228DF80420012208E054
:10A620005CEA010206D030228DF804208DF8050086
:10A6300002229046009B83F0080353EA0A030AD1E2
:10A640005CEA010201D1620705D530228DF80420B1
:10A650004FF001087F1E582804D034A003900EA8A4
:10A6600002900DE036A0F9E753466046009AFBF7EA
:10A6700009FF84460398825C0298401E0290027093
:10A680005CEA0100F0D1029806A9081A00F1200A3C
:10A69000600702D524F4803400E00127574502DD2D
:10A6A000A7EB0A0000E0002000EB0A0100900598EB
:10A6B0004144401A0590E00306D45B462146179AB0
:10A6C000059800F0B3F90544002706E001A85A46B2
:10A6D000C05D179990476D1C7F1C4745F6DBE00372
:10A6E0000CD55B462146179A059800F09FF9054462
:10A6F00004E030205A46179990476D1C0099481E77
:10A7000000900029F5DC08E0029802995A4600788A
:10A71000491C0291179990476D1CBAF10001AAF1EA
:10A72000010AF1DC65E10000092801003031323313
:10A73000343536373839616263646566000000007D
:10A740003031323334353637383941424344454667
:10A750000000000000F058F90544761C307800280D
:10A760007FF4ECAD19B02846BDE8F08F620700D445
:10A77000062709F1070222F0070CFCE80223E14654
:10A7800003F000485FEA080C02D00FF2702C0DE0D5
:10A790005FEA045C02D50FF2682C07E05FEAC47C34
:10A7A00002D00FF2602C01E0AFF2700C4FF0FF38D6
:10A7B00023F00043CDF850C065280CD006DC4528B6
:10A7C00009D046281DD047283DD13DE0662818D045
:10A7D00067287ED138E00021112F01DB112000E035
:10A7E000781CCDE9000106A90EA8FFF7DDFCDDE924
:10A7F0000F010E9A03910021009207F1010A0491C2
:10A800004DE04FF000400097CDE9011006A90EA8D9
:10A81000FFF7CAFCDDE90F0203920E9B119900229B
:10A82000DDF80CA00093049211B9791C00EB010A29
:10A83000B7EB0A0004D4C0F1FF3007F1010A04901D
:10A84000AAEB0700019044E0012F00DA0127002164
:10A85000112F01DD112000E03846CDE9000106A9E5
:10A860000EA8FFF7A1FCDDE90F010E9A039100216C
:10A8700004910092BA4621070CD40399514500DA9D
:10A880008A46BAF1010F05DD009AAAF10101515C77
:10A89000302908D0B84202DA10F1040F06DA01219B
:10A8A000CDE9011015E0AAF10101E9E7002805DC76
:10A8B000049901440491AAEB000102E0411C5145B6
:10A8C00000DD8A460499401A401C01904FF0004078
:10A8D0000290200704D40198504501DBCDF8048094
:10A8E00000208DF84F0002980DF14F07B0F1004F96
:10A8F00025D02B200E9002984FF0020800280CDA89
:10A90000404202902D200E9007E00A210298FCF7A9
:10A9100081F83031029007F8011DB8F10001A8F16B
:10A920000108F2DC02980028EFD1791E0E98087019
:10A93000307800F0200040F0450007F8020D12A822
:10A94000C01B00F107081498007800B1012000EB4B
:10A950000A01019801EBE07105984144401A401E3C
:10A960000590E00306D45B462146179A059800F04F
:10A970005DF805441498007818B15A461799904725
:10A980006D1CE00324D55B462146179A059800F01C
:10A990004DF805441CE00498002807DBDDE90301BD
:10A9A000884203DD0098405C179901E01799302038
:10A9B0005A469047049805F10105401C04900198FF
:10A9C000401E019004D12E205A46179990476D1CC5
:10A9D000BAF10001AAF1010ADDDC05E017F8010B6C
:10A9E0005A46179990476D1CB8F10001A8F101086B
:10A9F000F4DC5B462146179A0598ABE62D00000073
:10AA00002B000000200000002DE9F0410446002545
:10AA10001E461746880404D405E039462020B04776
:10AA20006D1C641EF9D52846BDE8F0812DE9F04182
:10AA3000044600251E469046C80301D5302700E095
:10AA40002027880404D505E041463846B0476D1CF0
:10AA5000641EF9D52846BDE8F0810A68531C0B60D6
:10AA60001070704710B560B159B102780B78520878
:10AA7000B2EB530F05D10622401C491CFBF783FDA6
:10AA800008B1002010BD012010BD800701D00020BA
:10AA9000704701207047C3688B4206D81144006993
:10AAA000491E814201D8012070470020704710B52F
:10AAB00001220221002001F0A3FA08B1072810D1D9
:10AAC00007220221012001F09BFA08B1072808D1D2
:10AAD00000210A22084601F093FA08B1072800D1A4
:10AAE000002010BD10B50321044800F0E8FB002849
:10AAF00003D0BDE8104000F071B810BDC0A5002023
:10AB000070B58CB015460E4600236C46C3F10F019C
:10AB1000415CE1545B1C102BF8D30D2104F11000B3
:10AB2000FBF70DFD0020C0F10F02315C2244401CF8
:10AB300011740328F7D3684646DF0020C0F10F01E7
:10AB4000214491F820102954401C0328F6D30CB05E
:10AB500070BD00000149097900F04EBDE6300020CB
:10AB600072B606F0BBFB00BF06F09EF90028FBD1D1
:10AB7000104C0121208801EB00400FA106F0F8FAEB
:10AB800010480068C00700D000BE2088022101EBF9
:10AB900000400DA106F0ECFABFF34F8F0948E438EE
:10ABA00001680D4A01F4E06111430160BFF34F8F6A
:10ABB00000BFFDE73C330020466174616C20657284
:10ABC000726F7200F0ED00E053797374656D20725E
:10ABD00065736574000000000400FA050EB50021DD
:10ABE0000091CDE901106A4644F20100FFF7B8FF79
:10ABF0000EBD10B58268C368934203D002F0B2FF65
:10AC0000002010BD052010BD29B112B1531E134202
:10AC100003D0092070470E20704701608380002117
:10AC20008160C1600846704710B58268C3689A1A8F
:10AC300083889A4203D802F09FFF002010BD0420B1
:10AC400010BD10B50AF092F8017B002905D001680B
:10AC50008268BDE810400846104710BD38B504684A
:10AC600000251AB110B1207B20B901E0072038BDC2
:10AC7000606808B1082038BD00202060A060E06056
:10AC800069B10120A26008490246009123464FF4B1
:10AC90007A7106A00DF092FC606010B102E0002015
:10ACA000F0E70E25284638BD43AC02002000000026
:10ACB000002070472DE9FC41466815460F460446C2
:10ACC00056B1207B002809D030460DF0D9FC002871
:10ACD00004D00020BDE8FC810820FBE7EFF30580ED
:10ACE000256008B30025019501AB3A46092130469D
:10ACF00000950DF09DFC01282BD10DF003FB0246C1
:10AD000001AB0621304600950DF092FC012820D1C0
:10AD1000019800B311494FF08050086040BFBFF365
:10AD20004F8FBFF36F8F16E0022500233A460421B0
:10AD3000304600950DF07CFC01280AD10DF0DCFABC
:10AD4000024600230121304600950DF071FC0128D8
:10AD500001D00420BEE701202073BAE704ED00E033
:10AD60007CB504464068002500280CD0EFF305812F
:10AD7000B9B1019501AB0022082100950DF058FCF6
:10AD8000012817D101E008207CBD0198A0B10C4931
:10AD90004FF08050086040BFBFF34F8FBFF36F8FFD
:10ADA0000AE00221002300911A4603210DF040FC25
:10ADB000012801D004207CBD257300207CBD00004B
:10ADC00004ED00E0074810B50178074A515C19B15D
:10ADD000001D07F071FC02E00C3007F0FDFA0020C6
:10ADE00010BD0000603100202431002070B50A4EF3
:10ADF00001460A48B578FFF7FCFE04464DB1002035
:10AE0000B070711C0122C81D05F004FB08B1FFF7EA
:10AE1000E5FE204670BD0000583100207C5A00201D
:10AE2000F0B5244E89B01F460D00044672603FD035
:10AE3000A888296882B22048FFF7E6FE002835D1AD
:10AE4000A889A96882B21C481030FFF7DDFE0028EF
:10AE50002CD1202219496846FBF758FB60690690FF
:10AE6000207C00B101208DF814008DF81C70607CEE
:10AE700000B10E208DF81500E0680290A0680390E4
:10AE800020680190606800900A480D4A69460830C1
:10AE900005F08CFA002809D1B0702068401C05D05C
:10AEA00004490122491CC81D05F0B4FA09B0F0BDDF
:10AEB0000720FBE7583100207C5A0020C08803009F
:10AEC0009971030010B501461048FFF7ADFE04006C
:10AED00019D10F480F4A0178515C19B1001D07F0D4
:10AEE000DDFB02E00C3007F067FA60B9084907485B
:10AEF0000839FFF77EFE30B90549012208390448B8
:10AF000005F098FA0446204610BD00008C5A002037
:10AF1000603100202431002030B5EFF3108172B68B
:10AF20000D4A9468012324B10370002900D162B650
:10AF300030BD93604FF0E023D3F88051074C25409B
:10AF40001560C3F88041D3F8844154605A17C3F8A0
:10AF5000842100220270E8E79C5A0020FC06FFBD15
:10AF60000B498A68002A11D000280FD1EFF3108016
:10AF700072B60B684FF0E022C2F800314B68C2F89D
:10AF8000043100228A60002800D162B670470000B8
:10AF90009C5A00202DE9F041064608680C46411CE9
:10AFA0004FF0A0474FF0010506D005FA00F1C7F8B1
:10AFB0000815206805F02BFE6068411C02D00021B6
:10AFC00005F00BFE3168A069C1F82405607D227D83
:10AFD00031681043C1F86C05D4E900123068C0F83C
:10AFE0001425C0F80C15207D012815D1A068411C3E
:10AFF00002D0002105F0F1FDE068411C05D085403C
:10B00000C7F80855E06805F002FED4E9021230687E
:10B01000C0F80825C0F81015BDE8F0812DE9F04111
:10B02000064608680C46411C4FF0A0474FF001054A
:10B0300006D005FA00F1C7F80815206805F0F1FD03
:10B040006068411C02D0002105F0D0FD3168A06984
:10B05000C1F82405607D217D32680843C2F86C0583
:10B06000D4E900123068C0F80C15C0F81425207D12
:10B07000012815D1A068411C02D0002105F0B6FDC1
:10B08000E068411C05D08540C7F80855E06805F028
:10B09000C8FDD4E902123068C0F80825C0F81015C0
:10B0A000BDE8F08104F074BA024600200A4200D0E4
:10B0B000012070472DE9F047074600888EB0804692
:10B0C00003F0A4FD824604462D4800252A46017857
:10B0D000404600F0A9FA7879400734D501254FF6AB
:10B0E000FF7603AB2A460721504608F0A7FC010073
:10B0F00004D040460AF0EAFB00252BE0B146314679
:10B10000049803F0D7FC064648450FD00446014694
:10B11000404603F065FD4046FFF71CFD30B9404650
:10B120000AF0A6FB4046FFF715FD48B1224607216D
:10B13000504608F0F9FC010003D040460AF0C6FB77
:10B1400000254E4506D0404608F05CFE10B1504642
:10B1500003F048FD02208DF81800ADF81A807879C8
:10B16000400701D5012000E002208DF820008DF875
:10B17000215006A802F0EEFA0EB0BDE8F0870000FC
:10B18000E630002070B51500044609D00020286084
:10B1900034B1206820B1A079800703D0072070BDAA
:10B1A0000E2070BD084600F0D9F9C0B2142804D0B2
:10B1B0002179814203D8042070BD052070BDE2884A
:10B1C000216800FB02102860002070BD18B50446FD
:10B1D0000020ADF8000013466A46204600F006F84D
:10B1E000002802D0BDF80000204418BD70B588B119
:10B1F00082B10024158803E0065D641C3444A4B2C7
:10B20000A54203D8061976789E4201D08C42F3D32A
:10B210008C4201D3002070BDA11C1180005D401E36
:10B2200080B270BD10B50288102A1BD0112A20D020
:10B23000262A1DD1007A0C46012801D0022817D1F8
:10B24000A0780521401CB0FBF1F201FB1201204661
:10B2500000F035F800280BD0A16B002908D0BDE81C
:10B2600010400847C27B012A02D18088A1F8A800BB
:10B2700010BD0C46002184F8B2108088B4F8A810E4
:10B280008842F5D120790028F2D10121DFE710B5FD
:10B290000C46022801D0032810D1607800280DD078
:10B2A00000206070A178204600F009F8002805D041
:10B2B000A16B002902D0BDE81040084710BD2DE960
:10B2C000F05F044600780F4638B1A770002005F003
:10B2D000A1FA012620B1667007E10820BDE8F09FC1
:10B2E0000025C4F8AA50A4F8AE5084F8B050A07954
:10B2F00010B1A078012806D0E07968B1A0780128C3
:10B3000001D0022808D1616B21B184F8B160082016
:10B31000884701E084F8B15004F1AB0100200A5CD9
:10B320000AB1304603E0401C0628F8D300204FF055
:10B3300002084FF0030B012F06D0022F0CD0032F71
:10B340000FD0042F15D110E0A17929B194F8241061
:10B3500011B908B130460DE0E17911B108B14046AC
:10B3600008E0207A08B1584604E0607A08B1042069
:10B3700000E02846A070616B41B1032801D0042889
:10B3800004D1607910B194F8B200A0B184F8B35040
:10B3900004F13C0018210746FBF7D1F804F12C001A
:10B3A00084F83C60814608F059FE58B194F82C00AE
:10B3B00084F8510008E084F8B45084F8B3600720A2
:10B3C0008847E5E784F8516094F8240050B1484676
:10B3D00008F044FE20B194F8280084F8520001E0FF
:10B3E00084F8526084F85050A27804F1AA0104F164
:10B3F00094094FF0060A052A60D2DFE802F07803CC
:10B400000F223F0084F83160C4F8A450C4E910153D
:10B4100084F83C808020A4F8480051E084F8318012
:10B4200094F82420384612B10722027001E080F817
:10B4300000B0228A8281C4F8A4504160E168B960FA
:10B440003EE06069B860208BB88194F824003D46E6
:10B4500010B184F83CA001E084F83C6020460CF078
:10B46000DDF840B185F814800421204602F0FCFB91
:10B4700020BB05211EE084F831B01DE0E069B86012
:10B48000208CB88194F824003D4610B184F83CA08B
:10B4900001E084F83C6020460CF0C0F848B185F823
:10B4A00014800421204602F0DFFB38B984F831A073
:10B4B00002E0042184F83110C4F8A490A07878B197
:10B4C0003A4604F15400D4F8A41072DF00287FF447
:10B4D00005AF94F8301094F8540073DF0028F6D1CB
:10B4E000616B11B194F8310088470020F6E684F8CA
:10B4F0003150F5E770B5040012D001461C22144803
:10B50000FBF704F81248134D0560206850B17ADF4C
:10B51000002806D12068016829604068686005E05D
:10B520000E2070BD0B487BDF0028FAD108484FF68B
:10B53000FF711438084A20F8041B054934390160AA
:10B540000021FFF78BFB0028EBD0032070BD00002B
:10B550005C560020C8300020B575030010B50446C5
:10B5600000F082F808B1204610BD142010BD000084
:10B5700010B5044600F078F8002805D02146BDE853
:10B580001040024804F05FBB10BD00008856002048
:10B5900070B515460E4604460CF05CF8002809D03C
:10B5A000054800EB840080692A463146BDE87040BA
:10B5B00002F098BB70BD00007856002070B50546BB
:10B5C000002400F051F838B12946044804F03BFB50
:10B5D00008B1022400E00124204670BD84560020FA
:10B5E00010B51821034804F009FB182800D0C0B298
:10B5F00010BD00007856002070B505460C46084680
:10B600000CF028F860B1284600F02EF840B105484B
:10B61000294600EB8400BDE87040183004F013BBED
:10B62000002070BD7856002070B5054614460E46C1
:10B6300008460CF00FF8002812D0284600F014F845
:10B6400000280DD00748294600EB860018301CB1B1
:10B65000BDE8704004F002BBBDE8704004F0B3BA2E
:10B6600070BD000078560020142801D300207047D8
:10B670000146014804F0E7BA7C56002010B51A4C88
:10B680000188606810290ED011292BD1401E6060FE
:10B6900028D1FFF70CFA002824D02168002921D0F6
:10B6A000BDE810400847D0B900210122084600F04B
:10B6B000A7FC08B107280FD107220221012000F0C2
:10B6C0009FFC08B1072807D104220221002000F0C6
:10B6D00097FC20B1072802D0216801B18847606833
:10B6E000401C606010BD0000C03000202DE9F04714
:10B6F00001883B4E40F2F3194FF6FF7510291BD01D
:10B7000011293ED0122954D0502946D1C188F2893E
:10B71000841D914241D1618902293ED186883046FB
:10B7200003F020FB050038D004F10C0000F004FA0F
:10B73000A8B3294630464EE0C17B878804460129DC
:10B740002BD1A846284603F00DFB050017D02F800B
:10B7500000202872234843464A460168C5F80A106B
:10B760004068C5F80E0004F1100105F10A0003F06D
:10B7700015FC6872F08900280FD129462AE00420C0
:10B7800013E0808803F0EEFA040006D06068FFF74B
:10B79000E7FA08B10AF07EF82580BDE8F087FFE7F8
:10B7A0006868FFF7DDFA0028F7D0BDE8F0470AF037
:10B7B00071B887880646384603F0D4FA0400ECD006
:10B7C0002B464A4606F1080104F10A0003F0E6FBA5
:10B7D000607221463846BDE8F04701F03DB90000EF
:10B7E0005C560020C83000202DE9F04F07468588C0
:10B7F00002883D48012197B08346102A09D0112ABA
:10B8000049D01A2A6CD1387AB1EB101F45D20122E7
:10B8100044E0354C083CA068C0430B9061680BA81D
:10B8200004F035FA0B990CA801F0CEF82C220CA9E3
:10B830006846FAF76BFE0026E946A04610E000BF16
:10B8400009EB46005FF00004B0F804A008EB8400A8
:10B850005146001D04F0B7F9641C1D2CF6D3761C6C
:10B860000098B042ECD8142D05D317B00420BDE8E1
:10B87000F04FFFF7B3B92946584604F0EFF92946CF
:10B8800008F1040004F0EAF9F87B012828D01648F2
:10B890002946001D15E029461AE000220221B1EBDD
:10B8A000101F01D2012600E000260F49083901F1DE
:10B8B0001000041D294682B104F0D0F936B12946A2
:10B8C000204617B0BDE8F04F04F0C8B9294620461D
:10B8D00017B0BDE8F04F04F076B904F074F9F5E75D
:10B8E00017B0BDE8F08F00008056002010B5044668
:10B8F0000748007800280AD0204603F061F8204667
:10B900000AF04AFD2046BDE8104002F0DFBB10BD42
:10B9100014310020F0B5484D028800262F8889B0E8
:10B920000446232A4BD026DC44494FF00300112A59
:10B93000098800EB01402AD00EDC012A58D0102AD9
:10B9400031D13FA105F014FC072000F07BFB08B1CA
:10B95000FFF744F9A08825E0132A2AD0212A22D112
:10B96000042000EB014039A105F002FC0096A088FC
:10B9700069468FDF29E03B2A36D0512A3CD0522A33
:10B9800026D0562A0FD18088132176DF25E034A1F6
:10B9900005F0EEFB002000F055FB08B1FFF71EF9A3
:10B9A0004FF6FF70288009B0F0BD00BFFFF716F911
:10B9B000F9E700231A46852138467FDF0DE000961F
:10B9C000019680880022694690DF0028EED1EAE7E0
:10B9D00000231A4619463846B1DF0028E3D009B0E3
:10B9E000BDE8F040FFF7FAB88088132176DFF4E76E
:10B9F000A088002166DFF0E71022A11D04A8FAF755
:10BA000085FD9DF810100029CDD09DF81800042860
:10BA100003D0062801D00528C5D102290AD001206B
:10BA20008DF800004FF4C170ADF80400A08869469D
:10BA3000B0DFCAE70220F3E7AC3200203C3300203D
:10BA4000436F6E6E65637465640000005048592052
:10BA500075706461746520726571756573742E000C
:10BA6000446973636F6E6E65637465640000000003
:10BA700030B5144B0D4604000FCB85B08DE80F0098
:10BA80001ED0EDB12868A0612146684662DF00281B
:10BA900014D120788DF812000120ADF81000A21CFE
:10BAA00004A9A8DF002809D12946204609F0C9FCCD
:10BAB000002803D1294620460BF0DCFA05B030BD42
:10BAC0000E20FBE76888030070B588B004460029A3
:10BAD00024D0002C22D008462188102920D05029BB
